{
  "address": "0x9FB13A0D09D58521b6efDE77c05446783699013E",
  "abi": [
    {
      "inputs": [
        {
          "internalType": "address",
          "name": "token",
          "type": "address"
        }
      ],
      "stateMutability": "nonpayable",
      "type": "constructor"
    },
    {
      "anonymous": false,
      "inputs": [
        {
          "indexed": false,
          "internalType": "address",
          "name": "sender",
          "type": "address"
        },
        {
          "indexed": false,
          "internalType": "uint256",
          "name": "amount",
          "type": "uint256"
        },
        {
          "indexed": false,
          "internalType": "uint256",
          "name": "chainId",
          "type": "uint256"
        }
      ],
      "name": "Burn",
      "type": "event"
    },
    {
      "anonymous": false,
      "inputs": [
        {
          "indexed": false,
          "internalType": "address",
          "name": "sender",
          "type": "address"
        },
        {
          "indexed": false,
          "internalType": "uint256",
          "name": "amount",
          "type": "uint256"
        }
      ],
      "name": "Lock",
      "type": "event"
    },
    {
      "anonymous": false,
      "inputs": [
        {
          "indexed": false,
          "internalType": "address",
          "name": "sender",
          "type": "address"
        },
        {
          "indexed": false,
          "internalType": "uint256",
          "name": "amount",
          "type": "uint256"
        }
      ],
      "name": "Mint",
      "type": "event"
    },
    {
      "inputs": [],
      "name": "admin",
      "outputs": [
        {
          "internalType": "address",
          "name": "",
          "type": "address"
        }
      ],
      "stateMutability": "view",
      "type": "function"
    },
    {
      "inputs": [
        {
          "internalType": "uint256",
          "name": "amount",
          "type": "uint256"
        },
        {
          "internalType": "uint256",
          "name": "chainId",
          "type": "uint256"
        }
      ],
      "name": "burn",
      "outputs": [],
      "stateMutability": "nonpayable",
      "type": "function"
    },
    {
      "inputs": [
        {
          "internalType": "address",
          "name": "sender",
          "type": "address"
        },
        {
          "internalType": "uint256",
          "name": "amount",
          "type": "uint256"
        }
      ],
      "name": "lock",
      "outputs": [],
      "stateMutability": "nonpayable",
      "type": "function"
    },
    {
      "inputs": [
        {
          "internalType": "address",
          "name": "",
          "type": "address"
        }
      ],
      "name": "locked",
      "outputs": [
        {
          "internalType": "uint256",
          "name": "",
          "type": "uint256"
        }
      ],
      "stateMutability": "view",
      "type": "function"
    },
    {
      "inputs": [
        {
          "internalType": "address",
          "name": "burner",
          "type": "address"
        },
        {
          "internalType": "uint256",
          "name": "amount",
          "type": "uint256"
        }
      ],
      "name": "mint",
      "outputs": [],
      "stateMutability": "nonpayable",
      "type": "function"
    },
    {
      "inputs": [],
      "name": "tokenContract",
      "outputs": [
        {
          "internalType": "address",
          "name": "",
          "type": "address"
        }
      ],
      "stateMutability": "view",
      "type": "function"
    },
    {
      "inputs": [
        {
          "internalType": "uint256",
          "name": "amount",
          "type": "uint256"
        }
      ],
      "name": "withdraw",
      "outputs": [],
      "stateMutability": "nonpayable",
      "type": "function"
    }
  ],
  "transactionHash": "0xedd2f2bb693851b2e3a78eed3d2d7756b46d9f130bf4394fffdc5b30c47e24ea",
  "args": [
    "0xfAb4DF3Cd3325457BBc0B5795Bac625372772dc9"
  ],
  "numDeployments": 1,
  "solcInputHash": "a276b9af4176131151330784ae7055ea",
  "bytecode": "0x60a060405234801561001057600080fd5b5060405161086938038061086983398101604081905261002f91610052565b600080546001600160a01b031916331790556001600160a01b0316608052610082565b60006020828403121561006457600080fd5b81516001600160a01b038116811461007b57600080fd5b9392505050565b6080516107b86100b16000396000818160c201528181610288015281816103c2015261053401526107b86000f3fe608060405234801561001057600080fd5b506004361061007d5760003560e01c806355a373d61161005b57806355a373d6146100bd578063b390c0ab14610101578063cbf9fe5f14610114578063f851a4401461014257600080fd5b8063282d3fdf146100825780632e1a7d4d1461009757806340c10f19146100aa575b600080fd5b610095610090366004610652565b610155565b005b6100956100a536600461067c565b610216565b6100956100b8366004610652565b610350565b6100e47f000000000000000000000000000000000000000000000000000000000000000081565b6040516001600160a01b0390911681526020015b60405180910390f35b61009561010f366004610695565b6104c8565b6101346101223660046106b7565b60016020526000908152604090205481565b6040519081526020016100f8565b6000546100e4906001600160a01b031681565b6000546001600160a01b031633146101a35760405162461bcd60e51b815260206004820152600c60248201526b155b985d5d1a1bdc9a5e995960a21b60448201526064015b60405180910390fd5b6001600160a01b038216600090815260016020526040812080548392906101cb9084906106ef565b9091555050604080516001600160a01b0384168152602081018390527f625fed9875dada8643f2418b838ae0bc78d9a148a18eee4ee1979ff0f3f5d427910160405180910390a15050565b336000908152600160205260409020548111156102455760405162461bcd60e51b815260040161019a90610707565b3360009081526001602052604081208054839290610264908490610749565b909155505060405163a9059cbb60e01b8152336004820152602481018290526000907f00000000000000000000000000000000000000000000000000000000000000006001600160a01b03169063a9059cbb906044016020604051808303816000875af11580156102d9573d6000803e3d6000fd5b505050506040513d601f19601f820116820180604052508101906102fd9190610760565b90508061034c5760405162461bcd60e51b815260206004820152601c60248201527f556e73756365737366756c20776974686472617720617474656d707400000000604482015260640161019a565b5050565b6000546001600160a01b031633146103995760405162461bcd60e51b815260206004820152600c60248201526b155b985d5d1a1bdc9a5e995960a21b604482015260640161019a565b6040516340c10f1960e01b81526001600160a01b038381166004830152602482018390526000917f0000000000000000000000000000000000000000000000000000000000000000909116906340c10f19906044016020604051808303816000875af115801561040d573d6000803e3d6000fd5b505050506040513d601f19601f820116820180604052508101906104319190610760565b9050806104805760405162461bcd60e51b815260206004820152601860248201527f556e73756365737366756c206d696e7420617474656d70740000000000000000604482015260640161019a565b604080516001600160a01b0385168152602081018490527f0f6798a560793a54c3bcfe86a93cde1e73087d944c0ea20544137d412139688591015b60405180910390a1505050565b336000908152600160205260409020548211156104f75760405162461bcd60e51b815260040161019a90610707565b3360009081526001602052604081208054849290610516908490610749565b9091555050604051630852cd8d60e31b8152600481018390526000907f00000000000000000000000000000000000000000000000000000000000000006001600160a01b0316906342966c68906024016020604051808303816000875af1158015610585573d6000803e3d6000fd5b505050506040513d601f19601f820116820180604052508101906105a99190610760565b9050806105f85760405162461bcd60e51b815260206004820152601860248201527f556e73756365737366756c206275726e20617474656d70740000000000000000604482015260640161019a565b60408051338152602081018590529081018390527f49995e5dd6158cf69ad3e9777c46755a1a826a446c6416992167462dad033b2a906060016104bb565b80356001600160a01b038116811461064d57600080fd5b919050565b6000806040838503121561066557600080fd5b61066e83610636565b946020939093013593505050565b60006020828403121561068e57600080fd5b5035919050565b600080604083850312156106a857600080fd5b50508035926020909101359150565b6000602082840312156106c957600080fd5b6106d282610636565b9392505050565b634e487b7160e01b600052601160045260246000fd5b60008219821115610702576107026106d9565b500190565b60208082526022908201527f4272696467653a20496e73756666696369656e74206c6f636b656420616d6f756040820152611b9d60f21b606082015260800190565b60008282101561075b5761075b6106d9565b500390565b60006020828403121561077257600080fd5b815180151581146106d257600080fdfea2646970667358221220623808e949ef551a4803e4b6e4ad062b86626d20788b2378ddf9ea40ebefafbf64736f6c634300080b0033",
  "devdoc": {
    "kind": "dev",
    "methods": {},
    "version": 1
  },
  "userdoc": {
    "kind": "user",
    "methods": {},
    "version": 1
  },
  "storageLayout": {
    "storage": [
      {
        "astId": 1338,
        "contract": "contracts/NetworkBridge.sol:NetworkBridge",
        "label": "admin",
        "offset": 0,
        "slot": "0",
        "type": "t_address"
      },
      {
        "astId": 1344,
        "contract": "contracts/NetworkBridge.sol:NetworkBridge",
        "label": "locked",
        "offset": 0,
        "slot": "1",
        "type": "t_mapping(t_address,t_uint256)"
      }
    ],
    "types": {
      "t_address": {
        "encoding": "inplace",
        "label": "address",
        "numberOfBytes": "20"
      },
      "t_mapping(t_address,t_uint256)": {
        "encoding": "mapping",
        "key": "t_address",
        "label": "mapping(address => uint256)",
        "numberOfBytes": "32",
        "value": "t_uint256"
      },
      "t_uint256": {
        "encoding": "inplace",
        "label": "uint256",
        "numberOfBytes": "32"
      }
    }
  }
}